{
  "_format": "hh3-artifact-1",
  "contractName": "HelloWorld",
  "sourceName": "contracts/HelloWorld.sol",
  "abi": [
    {
      "inputs": [
        {
          "internalType": "string",
          "name": "firstMessage",
          "type": "string"
        }
      ],
      "stateMutability": "nonpayable",
      "type": "constructor"
    },
    {
      "anonymous": false,
      "inputs": [
        {
          "indexed": false,
          "internalType": "string",
          "name": "oldEvent",
          "type": "string"
        },
        {
          "indexed": false,
          "internalType": "string",
          "name": "newEvent",
          "type": "string"
        }
      ],
      "name": "messageChanged",
      "type": "event"
    },
    {
      "inputs": [],
      "name": "message",
      "outputs": [
        {
          "internalType": "string",
          "name": "",
          "type": "string"
        }
      ],
      "stateMutability": "view",
      "type": "function"
    },
    {
      "inputs": [
        {
          "internalType": "string",
          "name": "newMessage",
          "type": "string"
        }
      ],
      "name": "update",
      "outputs": [],
      "stateMutability": "nonpayable",
      "type": "function"
    }
  ],
  "bytecode": "0x608060405234801561000f575f5ffd5b506040516106cc3803806106cc83398101604081905261002e91610054565b5f6100398282610188565b5050610242565b634e487b7160e01b5f52604160045260245ffd5b5f60208284031215610064575f5ffd5b81516001600160401b03811115610079575f5ffd5b8201601f81018413610089575f5ffd5b80516001600160401b038111156100a2576100a2610040565b604051601f8201601f19908116603f011681016001600160401b03811182821017156100d0576100d0610040565b6040528181528282016020018610156100e7575f5ffd5b8160208401602083015e5f91810160200191909152949350505050565b600181811c9082168061011857607f821691505b60208210810361013657634e487b7160e01b5f52602260045260245ffd5b50919050565b601f82111561018357805f5260205f20601f840160051c810160208510156101615750805b601f840160051c820191505b81811015610180575f815560010161016d565b50505b505050565b81516001600160401b038111156101a1576101a1610040565b6101b5816101af8454610104565b8461013c565b6020601f8211600181146101e7575f83156101d05750848201515b5f19600385901b1c1916600184901b178455610180565b5f84815260208120601f198516915b8281101561021657878501518255602094850194600190920191016101f6565b508482101561023357868401515f19600387901b60f8161c191681555b50505050600190811b01905550565b61047d8061024f5f395ff3fe608060405234801561000f575f5ffd5b5060043610610034575f3560e01c80633d7403a314610038578063e21f37ce1461004d575b5f5ffd5b61004b6100463660046101e1565b61006b565b005b610055610142565b60405161006291906102c2565b60405180910390f35b5f5f8054610078906102db565b80601f01602080910402602001604051908101604052809291908181526020018280546100a4906102db565b80156100ef5780601f106100c6576101008083540402835291602001916100ef565b820191905f5260205f20905b8154815290600101906020018083116100d257829003601f168201915b50505050509050815f9081610104919061035f565b507fc085582323d16ff9c149b5cdc11d2587ba3f3d94d315404d36ff1a302e7b273c818360405161013692919061041a565b60405180910390a15050565b5f805461014e906102db565b80601f016020809104026020016040519081016040528092919081815260200182805461017a906102db565b80156101c55780601f1061019c576101008083540402835291602001916101c5565b820191905f5260205f20905b8154815290600101906020018083116101a857829003601f168201915b505050505081565b634e487b7160e01b5f52604160045260245ffd5b5f602082840312156101f1575f5ffd5b813567ffffffffffffffff811115610207575f5ffd5b8201601f81018413610217575f5ffd5b803567ffffffffffffffff811115610231576102316101cd565b604051601f8201601f19908116603f0116810167ffffffffffffffff81118282101715610260576102606101cd565b604052818152828201602001861015610277575f5ffd5b816020840160208301375f91810160200191909152949350505050565b5f81518084528060208401602086015e5f602082860101526020601f19601f83011685010191505092915050565b602081525f6102d46020830184610294565b9392505050565b600181811c908216806102ef57607f821691505b60208210810361030d57634e487b7160e01b5f52602260045260245ffd5b50919050565b601f82111561035a57805f5260205f20601f840160051c810160208510156103385750805b601f840160051c820191505b81811015610357575f8155600101610344565b50505b505050565b815167ffffffffffffffff811115610379576103796101cd565b61038d8161038784546102db565b84610313565b6020601f8211600181146103bf575f83156103a85750848201515b5f19600385901b1c1916600184901b178455610357565b5f84815260208120601f198516915b828110156103ee57878501518255602094850194600190920191016103ce565b508482101561040b57868401515f19600387901b60f8161c191681555b50505050600190811b01905550565b604081525f61042c6040830185610294565b828103602084015261043e8185610294565b9594505050505056fea264697066735822122007ce4aa7259593de9736537aed24b46cb3a0921792fdc239c2b1a43766b51e6864736f6c634300081c0033",
  "linkReferences": {},
  "deployedLinkReferences": {},
  "immutableReferences": {},
  "inputSourceName": "project/contracts/HelloWorld.sol",
  "buildInfoId": "solc-0_8_28-4cb2db9e5211c5a3e50ecc09bd0c6985fdd4ff30"
}